:020000040800F2
:100000001808002001010008890400081F030008E7
:1000100085040008B5010008CF0B000800000000AF
:1000200000000000000000000000000015060008AD
:10003000B901000800000000FD04000801070008E5
:100040001B0100081B0100081B0100081B01000820
:100050001B0100081B0100081B0100081B01000810
:100060001B0100081B0100081B0100081B01000800
:100070001B0100081B0100081B0100081B010008F0
:100080001B0100081B0100081B0100081B010008E0
:100090001B0100081B0100081B0100081B010008D0
:1000A0001B0100081B0100081B0100081B010008C0
:1000B0001B0100081B0100081B0100081B010008B0
:1000C0001B0100081B0100081B0100081B010008A0
:1000D0001B01000865070008890800081B010008CB
:1000E0001B0100081B0100081B010008DFF80CD0F1
:1000F00000F04EF800480047450C000818080020A2
:100100000648804706480047FEE7FEE7FEE7FEE7B1
:10011000FEE7FEE7FEE7FEE7FEE7FEE7050700086D
:10012000ED00000840EA01039B0703D009E008C97D
:10013000121F08C0042AFAD203E011F8013B00F8AC
:10014000013B521EF9D27047D2B201E000F8012BF8
:10015000491EFBD270470022F6E710B513460A4647
:1001600004461946FFF7F0FF204610BD30B505469E
:100170002A460B4612F8010B13F8014B08B1A042B6
:10018000F8D01CB1002802D06D1CF1E7284630BD24
:10019000064C074D06E0E06840F0010394E80700D4
:1001A00098471034AC42F6D3FFF7A4FFD40C0008F4
:1001B000F40C000800BFFEE7704700B5034603E0FB
:1001C0004FF47A7000F005F8181EA3F10103F7D17F
:1001D00000BD00EBC001C9004FF0E02251610021D9
:1001E00091610521116100BF4FF0E021096901F41F
:1001F00080310029F8D004214FF0E02211617047CE
:100200002DE9F041024600250026002000230024AD
:10021000002791F803C00CF00F0591F803C00CF013
:10022000100CBCF1000F03D091F802C04CEA050598
:1002300091F800C0BCF1000F31D0146800202BE011
:100240004FF0010C0CFA00F3B1F800C00CEA030601
:100250009E4220D183004FF00F0C0CFA03F7BC43F1
:1002600005FA03FC4CEA040491F803C0BCF1280F22
:1002700006D14FF0010C0CFA00FCC2F814C00AE0E1
:1002800091F803C0BCF1480F05D14FF0010C0CFAF6
:1002900000FCC2F810C0401C0828D1D31460B1F88B
:1002A00000C0BCF1FF0F34DD546800202EE000F1E7
:1002B000080C4FF0010808FA0CF3B1F800C00CEA82
:1002C00003069E4221D183004FF00F0C0CFA03F776
:1002D000BC4305FA03FC4CEA040491F803C0BCF1EA
:1002E000280F05D100F1080C08FA0CF8C2F81480A8
:1002F00091F803C0BCF1480F07D100F1080C4FF092
:10030000010808FA0CF8C2F81080401C0828CED367
:100310005460BDE8F081416170470161704700BFE2
:10032000FEE7000008B50121042000F0F9F81020D4
:100330008DF803000320ADF800008DF80200694637
:100340000148FFF75DFF08BD0008014010B50446F5
:10035000FFF7E8FF34B1012C0DD0022C14D0032C90
:1003600024D11AE001211248FFF7D5FF02211048DD
:10037000FFF7D1FF1AE001210D48FFF7CCFF022162
:100380000B48FFF7CAFF11E001210948FFF7C5FF3D
:1003900002210748FFF7BFFF08E001210448FFF7EB
:1003A000BCFF02210248FFF7B8FF00BF00BF10BD2D
:1003B000000801402DE9F84304460D4617461E4645
:1003C000DDF820808DF800408DF801508DF8027026
:1003D00003226946044800F0C7FB42463146024802
:1003E00000F0DEFBBDE8F883004400402DE9FC414D
:1003F00005460E4617461C46C0208DF800008DF8B5
:1004000001508DF802601A208DF803008DF80470F9
:100410001CB9C0208DF8050008E0012C03D1402054
:100420008DF8050002E00020BDE8FC814FF00A08CD
:100430000320FFF78BFF15E0062269460E4800F007
:1004400093FB0EA10E48FFF791FE40B10020FFF78D
:100450007DFFFF210A48FFF77EFE0120E4E76420CC
:10046000FFF7ABFEB8F10000A8F101011FFA81F817
:10047000E2D100BFD8E70000004400404F4B00002D
:100480001802002000BFFEE77047000070B5002191
:1004900000230F22C47804B3154C246804F4E064EC
:1004A000C4F5E064210AC1F10403CA40447804FAA7
:1004B00003F184781440214309010E4C0678A155BC
:1004C000047804F01F050124AC4005786D11AD00DF
:1004D00005F1E025C5F8004109E0047804F01F05A6
:1004E0000124AC40044D0678761145F8264070BDD5
:1004F0000CED00E000E400E080E100E07047000067
:1005000029B1064AD2690243044BDA6104E0034A86
:10051000D2698243014BDA6170470000001002404B
:1005200029B1064A92690243044B9A6104E0034AE6
:1005300092698243014B9A617047000000100240AB
:1005400030B500210022002400232D4D6D6805F0F8
:100550000C0121B1042905D0082923D105E0294D3A
:10056000056022E0274D05601FE0254D6D6805F40C
:100570007012234D6D6805F48034022505EB92421C
:100580001CB9214D554305600BE01D4D6D6805F408
:1005900000351DB11C4D5543056002E0194D554312
:1005A000056002E0174D056000BF00BF144D6D6887
:1005B00005F0F0010909154D6B5C0568DD404560EB
:1005C0000F4D6D6805F4E061090A104D6B5C4568DC
:1005D000DD4085600A4D6D6805F46051C90A0B4D18
:1005E0006B5C4568DD40C560054D6D6805F44041B4
:1005F000890B074D6B5CC568B5FBF3F5056130BD34
:100600000010024000127A0000093D0000000020A6
:1006100010000020704710B500F002F810BD000077
:100620000CB50020019000903348006840F4803001
:100630003149086000BF3048006800F40030009085
:100640000198401C0190009818B90198B0F5A06F6E
:10065000F1D12948006800F4003010B10120009069
:1006600001E0002000900098012843D12348006851
:1006700040F01000214908600846006820F003009F
:1006800008600846006840F0020008601A484068A8
:10069000194948600846406848600846406840F488
:1006A000806048600846406820F47C104860084636
:1006B000406840F4E81048600846006840F08070E8
:1006C000086000BF0C48006800F000700028F9D0F6
:1006D0000948406820F00300074948600846406820
:1006E00040F00200486000BF0348406800F00C0082
:1006F0000828F9D10CBD0000001002400020024083
:100700007047000010B51348006840F0010011491F
:10071000086008464068104908400E49486008468D
:1007200000680E4908400B4908600846006820F43C
:10073000802008600846406820F4FE0048604FF4BE
:100740001F008860FFF767FF4FF0006004490860F2
:1007500010BD0000001002400000FFF8FFFFF6FE91
:1007600008ED00E010B51A48008800F0200098B1AC
:100770001748008820F0200015490880081D0088CF
:10078000144991F8FF10134A5054104690F8FF0096
:10079000401C114681F8FF000D48008800F0100051
:1007A000A8B10B4800880A48001D008801200949AB
:1007B00081F80001FF2201F20110FFF7B3FCFF21D5
:1007C0000448FFF7C8FC0020024981F8FF0010BD73
:1007D000003801401800002010B586B00446012101
:1007E00044F20400FFF79CFE18208DF81700032048
:1007F0008DF816004FF40070ADF8140005A92048DC
:10080000FFF7FEFC04208DF8170003208DF816007A
:100810004FF48060ADF8140005A91948FFF7F0FC0B
:100820000C20ADF80E0001940020ADF81000ADF8DA
:100830000C00ADF80A00ADF8080001A9114800F05D
:1008400027F901210F4800F0BAF8012240F22551A2
:100850000C4800F0F7F8012240F22441094800F06A
:10086000F1F825208DF8000001208DF803008DF8A7
:1008700001008DF802006846FFF708FE06B010BDC3
:10088000000801400038014010B540F225511648DB
:1008900000F0AEF8A0B11448001D0088134991F88B
:1008A000FF10124A5054104690F8FF00401C1146A9
:1008B00081F8FF0040F225510B4800F071F811E07B
:1008C00040F22441084800F093F858B106480088E7
:1008D0000548001D00880120044981F8000100201E
:1008E00081F8FF0010BD0000004400401802002005
:1008F00010B586B0044601210420FFF711FE012146
:100900004804FFF7FDFD18208DF817000420ADF80E
:10091000140003208DF8160005A91F48FFF770FC8E
:1009200004208DF817000820ADF8140005A91A4816
:10093000FFF766FC01940020ADF810000C20ADF824
:100940000E000020ADF80C00ADF80A00ADF808006C
:1009500001A9124800F09CF80121104800F02FF87E
:10096000012240F225510D4800F06CF8012240F2BE
:1009700024410A4800F066F826208DF80000012086
:100980008DF8030000208DF801008DF80200684604
:10099000FFF77CFD06B010BD000801400044004098
:1009A00010B50022002340F66A14A14200D100BF16
:1009B0000A1201249440A3B2DC43048010BD21B18B
:1009C000828942F40052828104E082894DF6FF73ED
:1009D0001A408281704702460020B1F5007F00D1A5
:1009E00000BF13880B400BB1012000E000207047CE
:1009F00070B50246002400230025002040F66A1648
:100A0000B14200D100BFC1F3421501F01F0301261E
:100A100006FA03F3012D02D19689334006E0022D38
:100A200002D1168A334001E0968A33400C12012627
:100A300006FA04F41688344013B10CB1012000E02A
:100A4000002070BDF0B503460024002600250020DC
:100A500040F66A17B94200D100BF1846C1F34214EC
:100A600001F01F06012707FA06F5012C01D10C3011
:100A700004E0022C01D1103000E014301AB10768F4
:100A80002F43076002E00768AF430760F0BD000036
:100A90002DE9F04786B005460E460024A24600BF69
:100AA000A1460027B08900B100BF2F462C8A4CF622
:100AB000FF700440F08804432C82AC894EF6F3109A
:100AC0000440B08831890843718908430443AC81EC
:100AD000AC8A4FF6FF400440B0890443AC8201A8C1
:100AE000FFF72EFD1F48874202D1DDF810A001E07C
:100AF000DDF80CA0A88900F4004040B10AEBCA0060
:100B000000EB0A1031684900B0FBF1F807E00AEB8E
:100B1000CA0000EB0A1031688900B0FBF1F86420CC
:100B2000B8FBF0F004012009642101FB1089A889B9
:100B300000F4004040B1322000EBC900B0FBF1F0FE
:100B400000F00700044308E0322000EB09106421A4
:100B5000B0FBF1F000F00F0004432C8106B0BDE8BB
:100B6000F0870000003801402DE9F04107460D46AE
:100B7000164600240CE0295D384600F00DF800BF51
:100B800080213846FFF727FF0028F9D0601CC4B247
:100B9000B442F0DBBDE8F081C1F308028280704707
:100BA00070B506460C4615460BE014F8011B30469E
:100BB000FFF7F2FF00BF80213046FFF70CFF00284F
:100BC000F9D0281EA5F10101CDB2EED170BD00BF54
:100BD000FEE70000014A024900F013B8250C0008A6
:100BE0001400002002E008C8121F08C1002AFAD130
:100BF00070477047002001E001C1121F002AFBD19D
:100C000070472DE9F04116460F460446002503E0E3
:100C10003946B047641C6D1C20780028F8D128465E
:100C2000BDE8F081024600BF0548008800F04000A2
:100C30000028F9D0024B1B1D1A80002070470000CD
:100C40000038014008B505200246174B19684FF6D9
:100C5000FF031940154B0B4343EA0221124B196065
:100C600000BF4FF4E130FFF7B7FD4FF41650FFF728
:100C70003FFE0FA0FFF7AEFF002317221121084609
:100C8000FFF7B4FB10B10CA0FFF7A4FF0BE00D20A1
:100C90000CA31722222100900846FFF78BFB4FF48C
:100CA000FA70FFF78AFAF2E70CED00E00000FA05AF
:100CB00052656164790D0A0053455420444F4E45F6
:100CC0000D0A000048656C6C6F20576F726C647E73
:100CD0000D0A0000F40C00080000002018000000BD
:100CE000E40B00080C0D00081800002000080000AC
:100CF000F40B0008000000000102030401020304D9
:0C0D0000060708090204060800000000B5
:04000005080000ED02
:00000001FF
